:020000040800F2
:10000000384D002001010008E16900086D5000082A
:10001000DD69000835100008B589000800000000FF
:10002000000000000000000000000000516A00080D
:10003000B5100008000000004D6A0008556A00086D
:100040001B0100081B0100081B0100081B01000820
:100050001B0100081B010008B91000081B01000863
:100060001B0100081B0100081B0100081B01000800
:100070001B0100081B0100081B0100081B010008F0
:100080001B0100081B0100081B0100081B010008E0
:100090003D8800081B0100081B0100081B01000827
:1000A0005D6A0008756A0008696A00081B0100089B
:1000B000816A00081B0100081B0100081B010008E1
:1000C0001B010008715000081B0100081B010008FB
:1000D0001B010008996B00081B0100081B010008A8
:1000E0001B0100081B0100081B010008DFF80CD0F1
:1000F00000F084FD00480047B9890008384D002011
:100100000648804706480047FEE7FEE7FEE7FEE7B1
:10011000FEE7FEE7FEE7FEE7FEE7FEE7596A0008B6
:10012000ED00000840EA01039B0703D009E008C97D
:10013000121F08C0042AFAD203E011F8013B00F8AC
:10014000013B521EF9D270470FB400B58DB010A913
:1001500009900B9000914FF0FF300A9000200C9016
:1001600005480690054807906A4609A80F9900F0CF
:100170003BFC0DB05DF814FB050A0008230A0008DB
:100180002DE9FF5F1D464FF0FF3BD5E90146914643
:100190005F464FF00008A9697F1C01988847296ACB
:1001A000824688470028F6D1BAF1FF3F0CD024F4EC
:1001B000C064002E19DD600614D5BAF12B0F09D0EA
:1001C000BAF12D0F0ED103E0584604B0BDE8F09F00
:1001D00044F48064A9697F1C01988847761E824692
:1001E000002E02DDBAF1300F03D0B9F1000F26D096
:1001F00032E0A969761E44F400747F1C0198884798
:100200008246002E05DDBAF1780F06D0BAF1580FFC
:1002100003D0B9F1000F10D01EE0B9F1000F02D0E9
:10022000B9F1100F18D1A969761E24F400747F1C4F
:10023000019888478246102002E0082000E00A204A
:10024000814609E008FB0908A969761E44F4007498
:100250007F1C019888478246002E05DD494650469E
:1002600000F0ADFB0028EDDAE96901988847A005A8
:1002700002D46FF00100A8E7E00725D1600613D58E
:10028000600502D5C8F1000000E0404629680A1D5B
:100290002A600968220501D5087015E0220701D5FA
:1002A000088011E008600FE02868011D29600068DF
:1002B000210502D580F8008006E0210702D5A0F8CC
:1002C000008001E0C0F8008038467EE7F0B480EAA4
:1002D0000102D40F4200B2EB410F02D2024608469F
:1002E00011464A0042D0C30DDDB2C1F3C752AD1A68
:1002F000202D35DAC1F3160141F4000204B1524257
:10030000C5F1200602FA06F12A411044B3EBD05F92
:1003100023D0C4B1012DA0EBC35009DCF0BC4FF0D9
:10032000004202EAC352DBB200F5000000F093BBCA
:10033000400000F1807000EBC350A0F1807040EAF3
:10034000D170490009E0490841EAC071A0EBC350EF
:1003500000F50000400800EBC350F0BC00F072BB99
:100360006142012202EB4101001BF6E7F0BC70473D
:1003700081F00041AAE780F00040A7E780EA01028F
:1003800010B502F00043400022D04A001FD0010EF9
:1003900001EB1261C0F35600C2F3560240F40000B4
:1003A00042F40002A0FB022000047F39140400D0B4
:1003B000401C50EA124001D44000491EC2B20C0653
:1003C00004EBD010401C4008802A02D003E000203B
:1003D00010BD20F00100002900DA0020184310BDF4
:1003E00030B480EA010202F0004530F0004221F012
:1003F000004013D090B1C30DD40DC2F31601C0F369
:100400001600E41A41F4000140F400027D349142E8
:1004100001D3641C00E04900002C02DA30BC00204B
:1004200070474FF400000023914201D3891A03431F
:1004300040084FEA4101F7D151B1914202D14FF04A
:10044000004105E002D24FF0010101E06FF001012F
:1004500003EBC450284430BC00F0F4BA2DE9FE4F41
:10046000804681EA0300C00F0C46009021F0004155
:1004700023F00045B8EB0200A94105D240462146D1
:1004800090461C460B46024623F00040104347D0DE
:10049000270DC7F30A00C3F30A510290401A0190D6
:1004A00040286BDAC3F3130040F4801B0098924697
:1004B00020B10023D2EB030A63EB0B0B01985946E2
:1004C000C0F14002504600F059FA06460D4650462B
:1004D0005946019A00F061FA10EB080061410024CE
:1004E00087EA115284EAE7731A4340D0009A62B354
:1004F000019A012A4FEA075215DC001B61EB020149
:100500004FF0004202EA0752CDE90042001C41F5DB
:10051000801132462B4600F0DBFA03B0BDE8F08FC5
:1005200040462146F9E7001B61EB0201001C41F542
:10053000801300185B412018A2F5001747EB030158
:1005400040EAD570B6196D4111E06D084FEA3606E4
:1005500045EAC0754FEA0752001B61EB0201001C1F
:1005600041F5801149084FEA3000001951413246E7
:100570002B4603B0BDE8F04F00F09BBA0098012273
:1005800040000023D0EB020263EBE07300982146A9
:100590004FEAE074B8EB000061EB0401E9E783F097
:1005A00000435BE781F0004158E72DE9FE4F81EA07
:1005B000030404F0004421F0004100944FF0000BCC
:1005C00023F0004350EA01045ED052EA03045BD0FA
:1005D000C3F30A54C1F30A552C44A4F2F334019432
:1005E000A0FB0254C1F3130141F48011C3F31303C0
:1005F00043F4801301FB024400FB034E840A970A74
:1006000044EA815447EA8357A4FB076802958D0AA0
:1006100005FB07854FEA932C04FB0C542705029D2C
:100620004FEA065847EA1637B5EB08056EEB070C9C
:10063000870E920E47EA811742EA8312A7FB020156
:10064000B6EB0B0164EB00042B0D43EA0C335E1890
:1006500044EB1C50DA465146E7FB0201C5F3130494
:100660004FEA0B3343EA14534FEA0432019C43EA46
:100670000603A4F10C040294009CCDE900B400F040
:1006800027FA03B0BDE8F08F00200146F9E72DE915
:10069000F04D81EA030404F0004B21F000451446BC
:1006A0004FF0000A23F0004150EA050220D054EA3E
:1006B00001021DD0C5F30A570246C5F31303C1F367
:1006C0001300C1F30A5640F4801543F48013A7EBDE
:1006D0000608101BD64608F2FD3873EB050002D35E
:1006E00008F1010801E092185B41B8F1000F03DA4C
:1006F00000200146BDE8F08D00204FF48011064631
:1007000084460EE0171B73EB050705D3121B63EB42
:10071000050306434CEA010C49084FEA30009218E1
:100720005B4150EA0107EDD152EA030012D082EAA0
:10073000040083EA0501084305D0101BAB4106D233
:100740000122002306E000224FF0004302E06FF098
:10075000010253101AEB06004CEB085110EB0A0093
:1007600041EB0B01BDE8F04D00F0A3B9002801DB1F
:10077000C0F10040002901DBC1F10041814201D8F4
:100780000120704700207047002801DBC0F10040C5
:10079000002901DBC1F10041814201D201207047F3
:1007A00000207047002801DBC0F10040002901DB78
:1007B000C1F10041814201D3012070470020704700
:1007C000002801DBC0F10040002901DBC1F100413C
:1007D000814201D90120704700207047002801DBC9
:1007E000C0F10040002901DBC1F10041814201D18B
:1007F0000120704700207047C10F80EAE070084474
:10080000CA079623002100F026B99623002211463C
:1008100000F021B90EB5C10F80EAE0700844CA07A4
:10082000002140F233438DE80E000A460B4600F0EB
:100830004FF903B000BD00F0004220F00040C10DB0
:10084000C0F3160040F400007F2901DA0020704751
:10085000962903DCC1F19601C84001E09639884031
:10086000002AF4D04042704720F00040C10DC0F390
:10087000160040F400007F2901DA00207047962915
:1008800003DCC1F19601C840704796398840704733
:1008900000F0004230F000400AD0C10D01F5607157
:1008A000C0F3160042EA0151C208400711437047E5
:1008B00000200146704701F0004330B421F00041B0
:1008C00050EA010206D00A0DA2F56072C1F31301CD
:1008D000002A02DC30BC00207047440F44EAC10407
:1008E000C100E01830BC00EBC25000F0ABB830B52E
:1008F0000B46014600202022012409E021FA02F5DE
:100900009D4205D303FA02F5491B04FA02F5284477
:10091000151EA2F10102F1DC30BD2DE9F05F0546A4
:10092000002092469B4688460646814640241BE0AE
:10093000284641464746224600F078F953465A4633
:10094000C01A914110D311461846224600F016F8FD
:100950002D1A67EB01084F4622460120002100F0C6
:100960000DF817EB00094E41201EA4F10104DFDC55
:10097000484631462A464346BDE8F09F202A04DB1C
:10098000203A00FA02F1002070479140C2F12003A2
:1009900020FA03F3194390407047202A06DBCB1757
:1009A000203A41FA02F043EAE07306E041FA02F32A
:1009B000D040C2F1200291400843194670473A28BE
:1009C00000D2303820F02002412A01D3A2F13700B2
:1009D000884201D34FF0FF30704700000268114495
:1009E0001378016018467047D16004495161044989
:1009F000116200211161114600F02EB9DD090008D5
:100A00004D0C0008426842B1016811F8013B23B166
:100A1000521EC0E90012184670470121C160881EAD
:100A2000704742685AB1C368016843B983688B4212
:100A300005D0491E521CC0E90012002070474FF03B
:100A4000FF3070470029A8BF7047401C490008BF0D
:100A500020F00100704710B4B0FA80FC00FA0CF0EE
:100A600050EA010404BF10BC704749B1CCF1200426
:100A700021FA04F411FA0CF118BF012121430843B3
:100A8000A3EB0C01CB1D4FEA00614FEA102042BFDF
:100A9000002010BC704700EBC35010440029A4BFD5
:100AA00010BC7047401C490008BF20F0010010BC7A
:100AB000704710B5141E73F1000408DA401C41F1B0
:100AC000000192185B411A4301D120F0010010BDD2
:100AD0002DE9F04D92469B4611B1B1FA81F202E048
:100AE000B0FA80F220329046FFF748FF04460F46E6
:100AF00040EA0A0041EA0B0153465A46084313D024
:100B0000114653EA010019D0C8F14002504600F0E6
:100B10008DF805460E46504659464246FFF72EFFD1
:100B2000084305D0012004E020463946BDE8F08D99
:100B30000020054346EAE0762C4337430A986305D4
:100B4000E40AA0EB08000022FD0A44EA47540A30F8
:100B500002D500200146E9E7010510196941DDE9E8
:100B6000084500196941BDE8F04DA2E7C1F30A52FA
:100B7000C1F3130140F2FF3341F480119A4202DACB
:100B800000200146704740F233439A42A2F23342BA
:100B900002DC524200F04AB8FFF7F0BE30B5041E46
:100BA00071F1000404DB4FF00044404264EB0101AA
:100BB000141E73F1000405DB1C464FF00043524243
:100BC00063EB04038B4208BF824230BD30B5041E84
:100BD00071F1000404DB4FF00044404264EB01017A
:100BE000141E73F1000405DB1C464FF00043524213
:100BF00063EB0403994208BF904230BD1CB509481D
:100C00000090094801900546009C06E0E06840F02D
:100C1000010394E8070098471034AC42F6D3FFF77D
:100C200069FA0000ECA500080CA60008202A04DBE5
:100C3000203A21FA02F00021704721FA02F3D04055
:100C4000C2F120029140084319467047C0B24FF4E8
:100C5000F05100F0AFB900002DE9F34F8BB04FF029
:100C6000000801F10C000C464FF0010B46460DF157
:100C7000080A01906269012101989047051E2DD054
:100C8000252D2CD0216A8847C0B1626901210198C5
:100C90009047216A88470028F7D1411E6269019870
:100CA000904700E0761CA1690B988847216A884725
:100CB0000028F7D1E1690B988847DBE7A1690B9819
:100CC00088470746A84201D1761CD3E7E1690B9813
:100CD00088477F1C02D1B8F1000F6FD046E1002792
:100CE00062693D463946019890472A2804D16269D5
:100CF0000121019890470125DFF884926269012162
:100D000001989047A0F130010A290AD24F45E5DC4D
:100D100007EB870100EB4107303FDFD445F01005BA
:100D2000ECE7E90601D46FF000476C280AD04C28A4
:100D300014D0682815D06A280DD074281CD07A28C1
:100D40001AD01DE062690121019890476C2802D0F9
:100D500045F0040514E045F002050DE045F02005DE
:100D60000AE06269012101989047682802D045F0A5
:100D7000080505E045F40065626901210198904786
:100D8000C4E9015765283DD019DC58287AD00CDC1D
:100D9000452837D004DC252826D0412831D131E040
:100DA00046282FD047282CD12CE05B2877D061280B
:100DB00028D063287CD0642823D15AE0D0E06F2863
:100DC00048D008DC66281DD067281BD0692821D0B0
:100DD0006E2816D127E0702845D0732868D0752872
:100DE00047D078280DD14DE0A1690B98884705467A
:100DF00025283FF469AFE1690B9888476D1C3FF4E3
:100E00006AAFB3E023466A466FF001000B99AFF377
:100E100000809EE045F040006060A80723464FF048
:100E2000000236D43EE0E8077FF447AF2068011D9A
:100E300021600068290501D506701BE7290701D547
:100E4000068017E7A90703D5F117C0E9006111E78C
:100E500006600FE745F040006060A80723464FF0AA
:100E6000080216D41EE040F60E0125EA010060607B
:100E700016E045F040006060A80723464FF00A02E4
:100E800007D40FE045F040006060A80708D523466E
:100E900010226FF001000B99AFF3008059E007E0DA
:100EA000234610226FF001000B99FFF769F950E01B
:100EB0004FF000094F464B46632802D05B2806D00E
:100EC00040E0E80601D40120A06001273AE0626911
:100ED0000121019890475E2805D14FF00109626910
:100EE000494601989047216939B900210A4653467D
:100EF00043F82120491C0829FADBB0B3216969B9FC
:100F0000C11700EBD16253110AEB830122F01F02DB
:100F1000821A01200B68904003430B606269012133
:100F2000019890475D28E8D1B9F1000F09D0002061
:100F3000514651F82020D24341F82020401C082877
:100F4000F7DB02AB224600976FF001000B99AFF37D
:100F5000008000280CDA401C08D1BBF1000F05D03E
:100F60004FF0FF300DB0BDE8F08FFFE74046F9E7E6
:100F7000E90701D108F1010806444FF0000B79E6BA
:100F8000CCCCCC0C70B521F0004303430CD0C1F3A2
:100F90000A550024D5EB040564EB0403D617AD1AFB
:100FA000B34102DB0020014670BD201841EB025125
:100FB00070BD00007F2801D9002208E0064A02EB3C
:100FC0005002C007127800D1120902F00F0201206E
:100FD000904008407047000030A5000870B58C189C
:100FE00010F8015B15F0070301D110F8013B2A113D
:100FF00006D110F8012B03E010F8016B01F8016B2A
:101000005B1EF9D12B0705D40023521E0DD401F825
:10101000013BFAE710F8013BCB1A921C03E013F8EE
:10102000015B01F8015B521EF9D5A142D8D3002023
:1010300070BD0000FEE700000020704700207047F0
:1010400010B543F2D854C2F2000443F2D811C2F2F0
:1010500000012046002205F0A3FE42F6D851C2F25C
:101060000001204605F096FE002010BDF0B581B0CD
:1010700040F2C467C2F200070A6805463E1D0C46EE
:1010800030462946FFF74EF8206800213154206889
:1010900043F2D85478800120C2F200043870204610
:1010A000294605F077FE204605F056FE002001B0E7
:1010B000F0BD000070470000012000F0A1B8000062
:1010C000EFF3108072B600BFFEE70000014690F813
:1010D0002100022816D10868D1E90FC3026822F066
:1010E0000E020260026822F001020260012000FA92
:1010F00003F2CCF8042081F821000020002281F8BE
:1011000020207047042088630120002281F82020DD
:101110007047000090F82110022923D1026840F2A4
:10112000040C1168C4F2020C21F00E011160136866
:101130002F21C4F202018A4223F00103136015DD5E
:101140003023C4F202039A421CD04423C4F20203A7
:101150009A421BD05823C4F202039A421CD14FF486
:10116000803321E004218163012070470823C4F209
:1011700002039A420ED01C23C4F202039A420BD1FE
:10118000102311E04FF480730EE000BF4FF4805342
:101190000AE000BF012307E00CF168014FF0807303
:1011A0008A4208BF4FF480130121CCF8003080F848
:1011B0002110416B0022002980F8202004BF00206C
:1011C000704780B58847002080BD000090F821005E
:1011D00070470000B0B5044600F032F9054640F211
:1011E0000C00C2F200000078611C18BF044400BF6C
:1011F00000F026F9401BA042FAD3B0BD70470000B2
:1012000040F21441C4F201010A68024214BF0860AE
:101210007047FFF7F3BF00002DE9F04F82B00E6872
:10122000002E00F0FD8041F20042C4F201020423CE
:1012300040F2004E904208BF03234FF6FF7CC4F2F9
:10124000010E009300240123C1F2100C4FF0000A9C
:101250004FF000094BE000BF41F20002C4F201026E
:10126000009F904208BF022704F00C030F229A400F
:101270002BEA020207FA03F34FEA9A051A4346F8EB
:1012800025204E6840F20C45F202DEF8082054BFDB
:1012900022EA080242EA0802C4F20105CEF8082058
:1012A0002A68B30254BF22EA080242EA08022A600E
:1012B000B303DEF8042054BF22EA080242EA08021F
:1012C000F303CEF80420DEF800204FF0010354BFF2
:1012D00022EA080242EA0802CEF800200E680AF16B
:1012E000010A36FA0AF204F1040400F0998003FAC4
:1012F0000AFB16EA0B08F1D04E68664512DC122E86
:1013000056D8DFE806F0350B4D495555555555551E
:101310005555555555555545510000BFD1F80C90C0
:1013200046E000BF4FF6FF72C1F2210296420FDC89
:101330000022C1F2110296421AD00022C1F212021A
:10134000964215D00022C1F22102964210D02FE021
:101350000022C1F2220296420AD00022C1F23102DA
:10136000964205D00022C1F23202964220D100BF3F
:101370008A684AB1012A14BFC0F814B0C0F810B08E
:101380004FF0080914E000BF4FF0040910E000BF5F
:10139000CA6802F104090BE04FF0000908E000BF41
:1013A000CA6802F1080903E0CA6802F10C0900BF2B
:1013B00002462646B8F5807F24BF0432203E1768D7
:1013C0000F25B54027EA050509FA06F635431560ED
:1013D000CA79D2067FF582AF41F21803C4F2020344
:1013E0001A68AEF57E7642F001021A601A6802F0C1
:1013F00001020192019A2AF0030256F802B040F667
:101400000002C4F20102904208D040F60042C4F249
:10141000010290427FF420AF012725E7002723E750
:1014200002B0BDE8F08F00008068084018BF0120BE
:1014300070470000002A08BF0904016170470000DE
:1014400043F63050C2F20000006870477047000059
:1014500070470000F0B581B007687968C26A90F8FB
:101460003E5090F83DE0402D01D0102D34D1BB69A5
:101470007C69E60718D1B2F12A4F00F06B82B2F511
:101480002A0F00F06782220701F4007240F1068102
:10149000002A00F00381416B426C0029D2B23A610C
:1014A00040F0B080B0E000BF8A0543D44FF0010C9B
:1014B0007A685B076ED4120500F14C8204F0440296
:1014C000402A40F0598111F4806100F0558101B04B
:1014D000BDE8F04003F0A4BF026C01F40073002AE1
:1014E0000CBFBC6900247D69AA0729D543B3016CF0
:1014F000002918BFBC6990F83D1001F02801282987
:1015000040F0C0807968012221F48061796004F0A4
:10151000040182EA910122064FF0180258BF0C2202
:10152000825A002380F83C3001B0BDE8F040FFF75C
:101530008FBF00BFC16AB1F52A0F3DD1012140E044
:10154000EA066FD5002B6DD090F83D50796821F4F4
:10155000E06179600021009179690091396841F07A
:10156000010139600099396821F480613960796836
:10157000090540F17D8105F0F7010446222940F07C
:101580004D8154F8381F0A68526824F80E2C34F83C
:101590000E2C4BE1120500F1DD8104F08402802A5B
:1015A00040F0FA8011F4806100F0F68001B0BDE8EF
:1015B000F04004F017B800BFC16AB1F12A4F01D161
:1015C0000821C16290F83E1040290BD1016D406C9A
:1015D000002900F0FE0018BF40F00100386101B0A2
:1015E000F0BD00BF0169B1F5804F40F0898090F8EF
:1015F0003D10426C212902F0FE0218BF01323A610F
:10160000416B09B1896A39B9806B002800F0A28169
:10161000806A002800F09E81786840F4006078605D
:1016200001B0F0BD0EF0F702212A79D105F0840255
:10163000802A40F0C58011F4806100F0C18090F8EC
:101640003D10428D002A00F08581426A12F8013B6C
:101650003B614262428D013A4285428D002A08BFB9
:10166000292940F07781796821F48061796021210E
:101670000163282180F83D1001B0BDE8F04000F082
:1016800063BD00BF002100917A690092BA6900929F
:10169000009A80F83C1001B0F0BD00BF4FF0010C83
:1016A000A6078CEA522C7FF503AF002A3FF400AF67
:1016B00090F83E20C16A036B90F83D60222E40F006
:1016C000A380066D002E08BF402A00F09D80026DA9
:1016D000002A40F041810269B2F5404F40F03C8160
:1016E0000021009179690091B969009100993968E8
:1016F00041F480713960016D0131016501B0F0BDC7
:10170000016D002900F00481016D012940F0228162
:10171000406C062101EAD010F130386101B0F0BD13
:1017200005F04402402A5BD111F4806158D090F852
:101730003D10428D002A00F00D813A69436A1A700B
:10174000426A01324262428D013A4285428D002A4C
:1017500008BF2A2940F0FE8001684A6822F48062AE
:101760004A6022210163282180F83D1001B0BDE8C4
:10177000F04000F0E7BC00BF04F00401012282EA5F
:10178000910141EA0C01C90740F0E48001B0BDE8D5
:10179000F04003F0C9BD00BF04F00401012282EA59
:1017A000910141EA0C01C90740F0D480BEF1210F3C
:1017B00040F0C88001B0BDE8F04003F0D1BE00BFEA
:1017C000690740F1C780002B00F0C480418D0029DB
:1017D00000F0C080416A11F8012B3A610FE000BFB0
:1017E000690740F1B780002B00F0B480418D0029DB
:1017F00000F0B0803969426A1170416A013141627A
:10180000418D01394185A5E0002000907869009064
:10181000B8690090009801B0F0BD00BF54F8341FC3
:101820000A68526824F80A2C34F80A2C1AB1026C9F
:1018300042F0040202647A68064622F40062084616
:101840007A60FFF7C3FC01463046012910D02068BA
:1018500045F27D01C0F600014163FFF75BFC0146E4
:10186000304629B1216804464A6B08469047204615
:10187000418D61B101684A6952072FD44A69520605
:1018800039D4418D19B1016C41F004010164016C3E
:1018900021B101B0BDE8F04003F080BC2A2D08D191
:1018A00000210163282180F83D10044600F04AFC25
:1018B000204690F83D10282932D10021CFF6FF7143
:1018C000C16200212022016380F83D2080F83E1093
:1018D00001B0BDE8F04000F099B900BF0969426A63
:1018E0001170426A016801324262428D013A4285BA
:1018F0004A695206C5D50969426A1170416A0131C7
:101900004162418D01394185418D0029BBD1BEE73E
:10191000406C062101EAD010F030386101B0F0BD12
:10192000016B222918BF222D14D10021202201632E
:1019300080F83D2080F83E1001B0BDE8F04000F096
:1019400001BC00BF402D05D101B0BDE8F04003F05F
:10195000A3BE00BF01B0F0BD428D52B1428D012A3D
:1019600016D1202918BF082946D1396821F4806191
:1019700039600021009179690091B969009100995D
:10198000396841F4007139600021016501B0F0BD92
:10199000428D022A14D110295AD8012214238A40D8
:1019A000C0F201031A4253D03A6842F480623A60AE
:1019B000002200927A690092BA690092009A56E079
:1019C0003A6842F480623A607A68120534D54A1E59
:1019D0001F2A08D8012303FA02F248F28103C8F251
:1019E00000031A4202D111F5803F25D1796841F4F4
:1019F0008051796020E000BF11F5803F0AD139683D
:101A000021F48061396079680905B2D5396821F41B
:101A1000806110E0122B01D10129A6D11029F5D83F
:101A2000012202FA01F11422C0F201021142EDD0AA
:101A3000396841F480613960002100917969009131
:101A4000B969009100990021016501B0F0BD00BFA6
:101A50003A6842F400623A60002200927A69009289
:101A6000BA690092009A3A6822F480623A607A6811
:101A7000120512D54A1E1F2A08D8012303FA02F2C2
:101A800048F28103C8F200031A4202D111F5803FE7
:101A900003D1796841F4805179600021016501B07A
:101AA000F0BD000070470000002804BF012070470F
:101AB000F0B581B0044690F83D0028B9002084F8C4
:101AC0003C00204600F000FB242084F83D00206804
:101AD000016821F001010160016841F400410160E9
:101AE000016821F40041016001F0C8FC636848F21C
:101AF000A16CC0F2010C40F60011C0F23D0163453B
:101B00003CBF48F28041C0F21E01884202D201204F
:101B100001B0F0BD4DF68361C4F21B31A0FB011290
:101B20002168970CD1F804E04FF496762EF03F052B
:101B300045EA92454D60774348F638160D6AC0F283
:101B40004106A7FB067625F03F07634538BF960C94
:101B5000721C3A430A62CA6948F2A0664CF6FF77E3
:101B6000C0F20106B34222EA07020BD801385B003B
:101B7000B0FBF3F001306FF31F30042898BF04204E
:101B80001BE000BFA768013857B119277B43B0FBA2
:101B9000F3F001306FF31F3070B100F5804007E0C3
:101BA00003EB4303B0FBF3F001306FF31F3018B1C8
:101BB00000F5004001E000BF01201043C861086843
:101BC000D4E9072320F0C000104318430860886858
:101BD00048F2FF3204F10C0790438CCF18431043B6
:101BE000A6698860C86820F0FF0038433043C860A9
:101BF000086840F00100086000202021206484F87B
:101C00003D10206384F83E0001B0F0BD7047000035
:101C100070470000704700007047000070470000E8
:101C20002DE9F04F85B004460020994616460F4630
:101C30000490FFF705FC94F83D10202927D10546B4
:101C4000206800BF816989071CD5FFF7F9FB411B9C
:101C500020681A29F6D381698907F3D5002020214D
:101C6000206384F83D1084F83E00206C04F13C0AA7
:101C700040F020002064022000218AF8001005B006
:101C8000BDE8F08FA2461AF83C1F012904D10220BA
:101C900005B0BDE8F08F00BF01228AF8002003687C
:101CA000DDE90F180E9ADB0703D1036843F0010347
:101CB0000360036823F400630360222084F83D007E
:101CC000402084F83E000020206462626185608DBF
:101CD000394620850020CFF6FF70E062204632466C
:101CE0004B46CDE9008503F037FD18B1012005B062
:101CF000BDE8F08F208D022826D001280ED00028C4
:101D000038D10020039020684169039181690391D3
:101D10000399016841F40071016037E020680168AF
:101D200021F480610160EFF3108072B6002003900F
:101D3000206841690391816903910399016841F425
:101D40000071016062B621E02068016841F4006121
:101D50000160EFF3108072B60020039020684169A3
:101D60000391816903910399016821F48061016005
:101D700062B60BE02068016841F4806101600021D7
:101D8000039141690391806903900398208D002895
:101D900000F0CC80042740F230094BF2895BC0F29E
:101DA0000107C2F20009C1F2F84B23260EE000BF82
:101DB00010690870606A218D01306062481E2085BC
:101DC000618D01396185010400F0B08080B2032883
:101DD0000CD802282CD001284AD1204641462A4658
:101DE00003F058FF002800F09C807FE72046414622
:101DF0002A4603F04FFF00287FF478AF2068616A1D
:101E000000690870606A2268411C208D6162013897
:101E10002085638D013B638553695B07D3D580B211
:101E20000328C5D1106820F480601060C0E700BFAF
:101E30002046394600224346009503F0D9FD00288C
:101E40007FF454AFEFF3108072B62068616A0268C5
:101E500042F40072026000690870606A218D0130EE
:101E60006062481E2085608D0138608562B658E04A
:101E70002046394600224346009503F0B9FD00286C
:101E80007FF434AF2068016821F480610160EFF3D2
:101E9000108072B62068616A00690870606A218DDE
:101EA0000130013960622185618D01396185D9F880
:101EB0000010C908A1FB0B12110A71430491049987
:101EC00001390491049900293CD021684A695207DC
:101ED00017D4049A013A0492049A9AB34A695207B1
:101EE0000FD4049A013A0492049A5AB34A695207E9
:101EF00007D4049A013A0492049A1AB34A69520721
:101F0000DDD50A6842F400720A6009690170606AEE
:101F1000218D01306062481E2085608D013860850A
:101F200062B62068616A006943E700BF202084F838
:101F30003D00002084F83E0000218AF8001005B022
:101F4000BDE8F08F00202021206384F83D1084F844
:101F50003E00206C40F02000206462B60120002189
:101F60008AF8001005B0BDE8F08F00002DE9F043BD
:101F700083B0994616460F460446FFF761FA94F877
:101F80003D10202924D10546206800BF81698907BA
:101F90001AD5FFF755FA411B20681A29F6D3816933
:101FA0008907F3D500202021206384F83D1084F8B0
:101FB0003E00216C41F02001216484F83C000220A5
:101FC00003B0BDE8F08300BF94F83C10012903D1B1
:101FD000022003B0BDE8F083012284F83C200368AE
:101FE000DDE90B180A9ADB0703D1036843F001030C
:101FF0000360036823F400630360212084F83D003C
:10200000402084F83E000020206462626185608D7B
:10201000394620850020CFF6FF70E0622046324628
:102020004B46CDE9008503F021FC18B1012003B037
:10203000BDE8F083208D98B9204641462A4603F03A
:1020400079FC88B3206C0428F0D12068016841F441
:1020500000710160012003B0BDE8F0830004EBD003
:10206000204641462A4603F05DFE0028EAD1616A17
:102070002268084610F8013B1361238D6062581EE8
:102080002085678D013F678557697F07E6D507047F
:10209000E4D048781061881C6062981E2085618DAC
:1020A00001396185DAE700BF2068016841F40071F9
:1020B0000160202084F83D00002084F83E0084F870
:1020C0003C0003B0BDE8F08310B586B0016845F66A
:1020D0000000C4F2000081424FF00001CDE904117C
:1020E000CDE9021102D006B010BD00BF41F21804C4
:1020F000C4F20204216800F5344041F00801216077
:10210000216801F00801019101994FF440610291A9
:10211000122103910321059102A9FFF77DF8606860
:10212000002140F4800060606068002200F48000BC
:1021300001900198212000F083F8212000F06EF832
:1021400006B010BD704700007047000040F20C0060
:1021500043F63051C2F20000C2F2000100780A6872
:10216000104408607047000080B542F20000C4F2DD
:102170000200016841F010010160032000F08CF8BA
:102180000F2000F005F800F027F8002080BD0000C7
:1021900070B540F20C06C2F2000640F2300132780F
:1021A000C2F200014FF47A730968B3FBF2F20446FD
:1021B000B1FBF2F1084601F089FB0F2C4FF001054D
:1021C00008D838B94FF0FF3021460022002500F032
:1021D00037F87460284670BD82B041F21800C4F22E
:1021E00002000168022241F001010160016801F072
:1021F000010101910199416841F0805141604068BD
:1022000000F08050009000980420C4F201000168A2
:1022100062F31A61016002B070470000002848BFF5
:10222000704700F01F01012202FA01F11C2202EAAC
:10223000D0004EF20012CEF2000281507047000032
:1022400010B54EF60C5CCEF2000CDCF80030C3F397
:10225000022E8EF00704042C28BF0424BEF10303D1
:102260004FF0FF3E0EFA04F438BF0023A14399401B
:102270000EFA03F39A43114300F00F0200F160439A
:102280000901043A03F564436244002848BF02F19F
:102290000C03197010BD00004EF60C51CEF2000177
:1022A0000A684FF6FF031A4060F30A2242F080608A
:1022B00040F0FD700860704780B501F0070C0CEB32
:1022C0008C0C00EBCC0C0CF1100C01EB810E090610
:1022D00000EBCE0058BF00F5A87C5AB1ACF808302E
:1022E0001B0C01210A202CF8003000208CF80C1067
:1022F00080BD00BF002106202CF8003000208CF8A3
:102300000C1080BD7047000001EB8102D0F8D43280
:1023100000EBC200426A184604F0E8BF01EB8102FC
:10232000D0F8D43200EBC200D0F86421184605F092
:1023300043B8000010B54FFA81FC4FF4A87201F0C9
:10234000070EBCF1000F48BF102290F890420244E3
:102350000EEB8E034FEAD11C02EBC301012C81F876
:1023600001C002F833E004BF022010BD026801235F
:1023700080F890320446104605F05AFD002084F89B
:10238000900210BDB0B5027901F00F03934284BFF3
:102390000120B0BD4AB24FF4A874002A48BF1024EF
:1023A00001F0070E021990F890420EEB8E034FEAEF
:1023B000D11C02EBC301012C4FF0000481F801C0D5
:1023C0008C7002F833E004BF0220B0BD0268012324
:1023D00080F890320546104605F0B8FD204685F895
:1023E0009042B0BD01F0070101EB810100EBC1009B
:1023F000D0F86C0170470000B0B54FFA81FC4FF483
:10240000A87401F0070EBCF1000F48BF102404446B
:102410000EEB8E054FEAD11C04EBC50181F801C01B
:1024200004F835E00A61022BCB7004BF00220A7168
:1024300090F89022012A04BF0220B0BD0268012357
:1024400080F890320446104605F0B2FB002084F874
:102450009002B0BD10B501F0070C0CEB8C0100EB45
:10246000C10E00680EF5A8710024CEF86421CEF8E4
:102470006831CEF86C418EF851418EF850C105F0AC
:10248000B9FD002010BD0000B0B5027901F00704CD
:1024900094424FF001022BD84BB24FF4A875002B99
:1024A00048BF10254FEAD11C48BF2146054401EB27
:1024B000810305EBC30181F801C090F890C28A70D6
:1024C000BCF1010F05F8334004BF0220B0BD026823
:1024D0000123054680F89032104605F071FD24B9BD
:1024E000286805F5267105F02FFD002285F8902259
:1024F0001046B0BD80B501F0070C0CEB8C0100EB71
:10250000C10101F810CF00684FF0010C01F1140770
:1025100081F824C04FF0000E87E80C400B6281F870
:1025200001C005F067FD002080BD00002DE9F04FDF
:1025300083B00446006806F087F901041ED4410503
:1025400000F1E483410400F1F383810400F1088485
:10255000C10400F10F84010500F12684810500F11A
:102560007584C00540F1E0832068B0F8441021F480
:102570008071A0F8441003B0BDE8F08F2068B0F976
:102580004410B1F1FF3F00F3CF8304F5A87101912E
:1025900004F1100148F2C005029104F5267140F6DD
:1025A0000F78009123E000BFB0F8501094F850214C
:1025B00000EB410101EB0211B1F80C34B4F85621E3
:1025C00000996FF39F23C4F86C3106F041F920683D
:1025D000018801EA080180310180204600F0B8FD41
:1025E0002068B0F94410B1F1FF3F00F39D83B0F8CB
:1025F000442012F00F090DD030F929104FEA490B91
:10260000B1F1FF3F1FFA81FA30DD5FEA0A60E7D5DA
:1026100048E100BF0188D20662D401EA080101F551
:1026200000410180B0F85010227C00EB410000EB2B
:102630000210B0F80404616A6FF39F20E06208445E
:10264000606220460021FFF75FFE607B0028C7D054
:10265000A06A0028C4D1607B216840F08000C0B22D
:10266000A1F84C0000206073BAE700BF30F81B10DF
:1026700001EA0801803120F81B10019A09EB890159
:1026800002EBC106317B002900F07E80F17802293F
:1026900040F08A80B0F850303178B26900EB4303E3
:1026A0005FEA4A4703EB011300F19680B3F80C741C
:1026B00000236FF39F27D21B38BF1A46B26140F246
:1026C000A1805FEA4A6200F1AD8030F8212002EA81
:1026D00008022A4320F82120002F40F0A480C3E004
:1026E0000A053FF561AF09B2B1F1FF3F3FF778AF9F
:1026F000018801EA080180310180B0F8501094F897
:10270000502100EB410101EB0211B1F80C346FF3E1
:102710009F23C4F86C3193B1D4F8641179B1B4F843
:10272000562106F095F8D4F86401D4F86C110844E9
:10273000C4F8640120460021FFF7F0FD20680188FD
:102740000A053FF54DAF01F44051B1F5405F3FF44C
:1027500047AFB0F8501000F20C42535A6FF39F236A
:102760005352D4F860313F2BC0F0E881DE068E5A18
:102770004FEA53174FF0FF3508BF05EB531748F2E8
:10278000C00546EA872362E2B0F85010327800EBC9
:10279000410101EB0211B1F80C746FF39F27002F78
:1027A00062D07169F2885AE0317830F8212002EA6B
:1027B00008022A4320F8212030F82120B0F85030B8
:1027C00000EB0111520401EB430115D4B1F80C7474
:1027D0006FF39F273FBB47E0B3F8047400236FF308
:1027E0009F27D21B38BF1A46B2611FD95FEA4A62DF
:1027F0002BD497BB38E000BFB1F804746FF39F2768
:102800005FBB31E030F8212043F60F731A404CF2E1
:102810008003A3F500535A4020F821205FEA4A6262
:102820007FF553AF07B37169728918E030F8212042
:1028300043F60F731A404CF28003A3F500535A403D
:1028400020F821205FEA4A62D3D530F8212002EA3D
:1028500008022A4320F8212037B1716932893B46AA
:1028600005F0F6FF01E000BF0027F169D6E9050297
:1028700039443844F161706112B13069B84209D904
:1028800031782046FFF74AFD5FEA0A607FF5A8AE7F
:1028900008E000BF2068314605F0ACFB5FEA0A6043
:1028A0007FF59EAE206809EB890130F81B20029B62
:1028B00003EBC10602EA080101F5004120F81B10F4
:1028C000F178012922D1317B00294FF00001B1615B
:1028D00000F02F815FEA4A6100F180807178012960
:1028E00000F01481002940F02481B0F850103278B3
:1028F000084400EB0210B0F80C146FF39F21A0F80D
:102900000C14B0F80C1441F4004106E15FEACA511E
:102910001ED4B0F85020317800EB420202EB0112D5
:10292000B2F80424B3696FF39F229B1A4FF000079B
:1029300038BF3B46B36140F2FD807169F3691144D1
:1029400071619918F161314605F054FB48E600BF0A
:10295000B0F850303178B5695FEA4A6200EB011790
:1029600054D407F20C4E3EF8133000226FF39F232D
:10297000ED1A38BF1546B5617CD95FEA4A4708D4DD
:1029800030F821704CF2800507EA08072F4320F841
:10299000217096F8241048F2C005012940F0A98161
:1029A000D6E904C1D6E9075719441D44674571614A
:1029B000F56180F0FB80002F00F06081BC46326240
:1029C00086F82420737848F2C005012B40F0F78088
:1029D000B0F850302EF803C07CE100BF71780129B7
:1029E00000F09E80002940F0A480B0F850103278AA
:1029F000084400EB0210B0F804146FF39F21A0F814
:102A00000414B0F8041441F4004190E007F20449C2
:102A100039F8133000226FF39F23ED1A38BF1546A3
:102A2000B5614DD95FEA4A4708D530F821704CF2BC
:102A3000800507EA08072F4320F8217096F8241034
:102A400048F2C005012940F05481D6E90471D6E965
:102A5000075E19441D44BE457161F56180F0CE806A
:102A60004FF0000CBEF1000F86F824C040F0C98082
:102A70009E46C8E0737848F2C005012B6AD0002B4F
:102A800071D1B0F850303B44B3F804746FF39F2712
:102A9000A3F80474B3F8047447F40047A3F804746B
:102AA000B0F850003EF800306FF39F232EF800304E
:102AB0003EF8003043F400432EF8003053E000BFEE
:102AC000737848F2C005012B54D0002B5BD1B0F8CD
:102AD000503039F803506FF39F2529F8035039F827
:102AE000035045F4004529F80350B0F8500048F26F
:102AF000C0053844B0F80C246FF39F22A0F80C24D2
:102B0000B0F80C2442F400423BE000BFB0F8501093
:102B10003278084400EB02100021A0F80C1408E001
:102B2000B0F850103278084400EB02100021A0F8F1
:102B3000041431782046FFF7E7FB51E5002B00F045
:102B4000858003F00107565A07EB530346EA8323B7
:102B500082E000BFB0F850303B44A3F80424B0F842
:102B600050002EF800202046FFF7CEFB5FEA4A40D7
:102B700010D5BEE0B0F8503029F80320B0F850006E
:102B80003844A0F80C242046FFF7BEFB5FEA4A4019
:102B900040F1AF80206831784CF2800330F821207A
:102BA00002EA08021A4320F82120A2E0A7EB0C0356
:102BB0003362737848F2C005012B3FF409AF002B54
:102BC00040F08880B0F85030BCF13F0F3EF8037001
:102BD0006FF39F272EF803705AD35FEACC654FEA54
:102BE0005C173EF803504FF0FF3208BF02EB5C1752
:102BF00045EA872748F2C00568E000BFAEEB070C46
:102C0000BE46C6F820C0737848F2C005012B2FD00D
:102C1000002B69D1B0F85030BEF13F0F39F8037086
:102C20006FF39F2729F8037040D35FEACE654FEA20
:102C30005E1739F803504FF0FF3208BF02EB5E1702
:102C400045EA872748F2C0054AE000BF535A48F2D8
:102C50000007CFF6FF773B438B52018843F60F7294
:102C600011404CF28002A2F5805251400180B7E43D
:102C7000B0F8503029F803E036E000BF002786F8AE
:102C800024709C46737848F2C005012B97D19FE6CB
:102C9000BCF1000F18D00CF001073EF8035007EB11
:102CA0005C0745EA872748F2C00511E0BEF1000F36
:102CB00014D00EF0010739F8035007EB5E0745EA20
:102CC000872748F2C0050DE03EF8037047F400473F
:102CD0002EF8037072891FFA8CF308E039F803703C
:102CE00047F4004729F8037032891FFA8EF305F084
:102CF00013FE2068317840F63F7330F821201A40E7
:102D0000A5F110035A4020F8212069E42068B0F8AA
:102D1000441021F48061A0F84410204600F0EAF944
:102D200094F8900201280DD103B0BDE8F08F00BFE8
:102D30002068B0F8441021F48041A0F8441003B09A
:102D4000BDE8F08F0120002584F8900265732068AB
:102D5000002105F0D9FD84F8905203B0BDE8F08F52
:102D60002068B0F8441021F40051A0F8441003B0DA
:102D7000BDE8F08F2068B0F8401021F00401A0F801
:102D80004010B0F8401021F00801A0F84010204693
:102D900000F0C2F92068B0F8441021F48051A0F886
:102DA000441003B0BDE8F08F2168B1F800C0B1F85D
:102DB00004E0B1F808808F890E8A8D8A088B8A8B8F
:102DC000B1F8403043F00103A1F84030B1F8403091
:102DD00023F00103A1F84030B1F844305B050CD476
:102DE000B1F844305B055CBFB1F844305FEA43534F
:102DF00003D4B1F844305B05EED5B1F8443023F488
:102E00008063A1F84430A1F800C0A1F804E0A1F863
:102E100008808F810E828D8208838A83B1F84000FA
:102E200040F00800A1F84000B1F8440020F4006030
:102E3000A1F84400B1F8400040F004022046A1F897
:102E4000402003B0BDE8F04F00F0A4B92168B1F80C
:102E5000440020F400722046A1F8442003B0BDE8ED
:102E6000F04F00F05DB90000002804BF012070475A
:102E7000F0B581B0044690F8910228B9002084F89A
:102E80009002204600F014F9032084F89102206893
:102E90000021617105F04EF894E80700237B04F0EF
:102EA000C5FF002840F0F2802068002105F02AFDCF
:102EB000002840F0EB8094F804E0BEF1000F00F031
:102EC000DF800EF0030CBEF1040F4FF0000237D389
:102ED0000EF0FC03A4F1A00003210125CE1E80F812
:102EE000B0608E1E80F8D8604E1E80F8006180F8B9
:102EF00028110E1D013180F8B15080F8B320C0E9CF
:102F00003022C0F8C82080F8D95080F8DB20C0E912
:102F10003A22C0F8F02080F8015180F80321C0E97E
:102F20004422C0F8182180F8295180F82B21C0E9EB
:102F30004E22C0F84021A03099423146CED1F21E37
:102F4000BCF1000F2ED004F1100002EB820100EB67
:102F5000C105012300F831200021BCF1010F6B7085
:102F6000E970C5E90411A9611CD0551C05EB850663
:102F700000EBC607BCF1020F7B7000F83650F97009
:102F8000C7E90411B9610DD0911C01EB810200EB7E
:102F9000C203012500F8321000205D70D870C3E92B
:102FA00004009861BEF1000F6AD0BEF1040F4FF02B
:102FB000000235D30EF0FC0003212346CF1E83F818
:102FC00050718F1E83F878714F1E83F8C8110D1D44
:102FD000013183F8512183F85321C3E95822C3F802
:102FE000682183F8792183F87B21C3E96222C3F841
:102FF000902183F8A12183F8A07183F8A321C3E96C
:103000006C22C3F8B82183F8C92183F8CB21C3E926
:103010007622C3F8E021A03381422946CED1EA1EB0
:10302000BCF1000F2CD004F5A87002EB820300EB7A
:10303000C3070021BCF1010F797000F83320F9704B
:10304000C7E90411B9611BD0531C03EB830700EBE4
:10305000C706BCF1020F717000F83730F170C6E995
:103060000411B1610CD0911C01EB810200EBC20391
:1030700000275F7000F83210DF70C3E904779F61AA
:1030800094E80700237B04F047FF28B1022084F86E
:103090009102012001B0F0BD00206073012084F88E
:1030A0009102206804F036FF002001B0F0BD00005E
:1030B000006845F60041C4F20001884218BF70471D
:1030C00080B582B041F21C00C4F202000168002207
:1030D00041F4000101600068002100F4000001904B
:1030E00001981420FFF7ACF8142002B0BDE880402E
:1030F000FFF794B810B504468079022818BFFDF791
:10310000DFFFD4F8D402012104F05AFAD4F8D40233
:10311000BDE8104004F012BAD0F8D40204F038BA76
:10312000D0F8D40204F03EBA90F89022012A04BFED
:103130000220704710B5012280F890224173026886
:103140000446104605F0E0FB002084F8900210BD14
:10315000D0F8D42200F52671104604F047BA0000DA
:1031600090F89012012904BF0220704710B5016841
:10317000012280F890220446084605F055FB2046BF
:103180000121FFF7BFF8206804F0C2FE002084F898
:10319000900210BD10B50446D0F8D40204F078FABD
:1031A000A07A002808BF10BD4EF61050CEF20000E5
:1031B000016841F00601016010BD00002DE9F041F9
:1031C00082B00446007841F21C06C007C4F2020631
:1031D0004AD030685FEAC00808D4306840F08050B8
:1031E0003060306800F080500190019847F200078D
:1031F000C4F200073868C00512D4386840F4807003
:103200003860FEF71DF905463868C00508D4FEF79A
:1032100017F9401B6428F7D9032002B0BDE8F081FC
:10322000706810F4407012D0616801F440718842F7
:103230000DD0706840F24042C4F24222012320F4D3
:10324000407113600023C0071360716026D170685D
:10325000616820F440700843B8F1000F706003D437
:10326000306820F0805030602068810707D556F81C
:10327000181CA26821F44041114346F8181CC006EE
:1032800007D556F8180CE16820F48000084346F88A
:10329000180C002002B0BDE8F08100BFFEF7D0F8A6
:1032A000054641F2883700BF70688007CFD4FEF72B
:1032B000C7F8401BB8424FF00300F5D9EAE7000019
:1032C000002804BF012070472DE9F04381B042F28D
:1032D0000008C4F202080446D8F800000D4600F0C9
:1032E000070081420CD9D8F8000020F007002843DD
:1032F000C8F80000D8F8000000F00700A8426CD120
:10330000206841F204098107C4F2020917D5410778
:1033100005D5D9F8001041F4E061C9F800100107A3
:1033200005D5D9F8001041F46051C9F80010D9F85A
:103330000010A26821F0F0011143C9F80010C00785
:1033400042D1D8F8000000F0070085420CD2D8F82E
:10335000000020F007002843C8F80000D8F800005B
:1033600000F00700A84238D12068410707D5D9F8F6
:103370000010E26821F4E0611143C9F80010000771
:1033800008D5D9F80000216920F4605040EAC10056
:10339000C9F80000D9F8002002F00C00082841F21A
:1033A0000020C0F27A004DD14AF28A53C2F3834121
:1033B000C0F60003595CD20338D440F60010C0F2C6
:1033C0003D0048433EE000BF606859F8041C0228F5
:1033D00008D0012826D1890306D4012001B0BDE818
:1033E000F08300BF8901F8D5D9F8001021F003015E
:1033F0000843C9F80000FEF723F8064641F2883773
:10340000D9F80000616800F00C00B0EB810F98D093
:10341000FEF716F8801BB842F2D9032001B0BDE8D0
:10342000F08300BF8907D8D5DEE700BFD9F80020B8
:103430004AF28853C2F34042C0F600039A5C484304
:10344000B0FBF2F0D9F800104AF27052C1F3031148
:10345000C0F60002515C40F2300220FA01F140F265
:103460001000C2F200000068C2F200021160FEF714
:103470008FFE002001B0BDE8F083000040F2300074
:1034800041F20401C2F20000C4F2020100680968BE
:103490004AF28052C1F30221C0F60002515CC840DA
:1034A0007047000040F2300041F20401C2F2000017
:1034B000C4F20201006809684AF28052C1F3C221D5
:1034C000C0F60002515CC84070470000002804BFED
:1034D000012070472DE9F04182B00446007841F2A6
:1034E0000006C007C4F202060CD0706800F00C00A1
:1034F000042840F081803068800303D5606800288C
:1035000000F04681207880071BD5706810F00C0F02
:1035100009D0706800F00C00082840F087807068BF
:10352000C00300F183803068800703D5206901283B
:1035300040F02E813068616920F0F80040EAC10057
:1035400030602078000713D4207840072CD4E56938
:10355000002D00F01881706800F00C00082840F081
:10356000A780012D40F00481012002B0BDE8F08168
:10357000A069002800F084800020C4F242200121CC
:10358000C0F88014FDF75CFF054600BF706A800735
:1035900000F1B280FDF754FF401B0228F6D903204A
:1035A00002B0BDE8F08100BFF0695FEAC00808D44E
:1035B000F06940F08050F061F06900F080500090B8
:1035C000009847F20007C4F200073868C00549D4E4
:1035D000386840F480703860FDF732FF054600BF60
:1035E0003868C0053ED4FDF72BFF401B6428F7D98F
:1035F000032002B0BDE8F081706800F00C000828DC
:1036000003D17068C0033FF576AF61683068002968
:1036100000F00C81B1F5A02F00F00081B1F5803FE2
:1036200040F01A8140F480301CE100BF206900287E
:1036300040F20000C4F2422000F0888001210160C5
:10364000FDF7FEFE054600BF306880073FF572AF0C
:10365000FDF7F6FE401B0228F6D9032002B0BDE8B4
:10366000F08100BFE168306A002900F09D800529E3
:1036700000F09280012940F0AF8040F00100B1E0FD
:103680000020C4F242200021C0F88014FDF7D8FECB
:10369000054600BF706A80077FF556AFFDF7D0FE84
:1036A000401B0228F6D9032002B0BDE8F08100BF1C
:1036B0000027C4F2422700203866FDF7C1FE022D24
:1036C00005460DD13068800140F1DE80FDF7B8FE7F
:1036D000401B02284FF00300F4D902B0BDE8F0818E
:1036E000306880014FD5FDF7ABFE401B02284FF03C
:1036F0000300F5D9F1E700BF40F23000C2F200004C
:10370000006844F6D351C1F26201A0FB0101480AEE
:10371000019000BF00BF0198411E002801913FF4B5
:1037200013AF00BF0198411E002801913FF40CAF78
:1037300000BF0198411E002801913FF405AF00BF72
:103740000198411E00280191E4D1FDE600210160AD
:10375000FDF776FE054600BF306880077FF5F1AEC5
:10376000FDF76EFE401B02284FF00300F4D9B4E7CA
:103770007068216A00F480328A4209D1616A00F4DB
:103780007010884204D1002002B0BDE8F08100BF73
:10379000012002B0BDE8F08140F004003062306AE0
:1037A00040F001001EE000BF20F001003062306AEE
:1037B00020F004003062FDF743FE054641F28837F1
:1037C000306A800720D5FDF73BFE401BB8424FF022
:1037D0000300F5D981E700BF20F001003062306AB4
:1037E00020F004003062FDF72BFE054641F28837D9
:1037F000306A800708D4FDF723FE401BB842F7D992
:10380000032002B0BDE8F081B8F1000F3FF59FAE94
:10381000F06920F08050F06199E600BF40F480200C
:103820003060306840F480301CE000BF20F480300D
:103830003060306820F480203060FDF701FE0546DE
:10384000306880037FF55EAEFDF7FAFD401B64280B
:103850004FF00300F4D940E720F480303060306846
:1038600020F480203060FDF7EBFD054630688003D2
:103870003FF548AEFDF7E4FD401B6428F6D9032070
:1038800002B0BDE8F08100BF206AB0F5803F05D1ED
:103890007168A26821F40031114371607168626A35
:1038A00021F4741111430843706001203866FDF75C
:1038B000C7FD0446306880013FF565AFFDF7C0FDE8
:1038C000001B02284FF00300F4D906E7411E002038
:1038D000B0EB116F1CBF012070474EF21002CEF208
:1038E000000251604EF62351CEF20001F0230B701E
:1038F000072190601160704770470000704700001A
:1039000090F83C20012A4FF0020236D010B580F822
:103910003D200268D2F804E0D2F808C00C682EF00E
:103920007003234340F2FF74C4F20004A2425360C8
:103930000ADCB2F1804F13D040F20043C4F200031E
:103940009A420DD011E000BF42F60043C4F20103D9
:103950009A4205D040F60003C4F200039A4204D113
:1039600049682CF08003194391600121002280F8FE
:103970003D1080F83C20BDE8104010467047000024
:10398000002804BF0120704710B590F83D1031B9F0
:10399000002180F83C10044600F070F82046022117
:1039A00080F83D10016840F2FF740B68C4F2000417
:1039B00042F6004CA142C4F2010C15DCB1F1804F7B
:1039C0001AD040F20042C4F20002914214D0A14247
:1039D00018DCB1F1804F1DD040F20042C4F2000269
:1039E000914217D01AE000BF614505D040F60002B1
:1039F000C4F200029142EAD1826823F070031343BB
:103A0000A142E6DD614505D040F60002C4F20002A5
:103A1000914203D1026923F440731343846923F074
:103A20008002D0F804E0C368224361450A60CB629B
:103A3000C1F828E002D14269CCF8302001224A6165
:103A40000B69DB0703D00B6923F001030B6180F8DE
:103A5000462080F83E2080F83F2080F8402080F803
:103A6000412080F8422080F8432080F8442080F8EC
:103A7000452080F83D20002010BD0000006842F67F
:103A80000041C4F20101884218BF704780B582B07E
:103A900041F21800C4F202000168002241F4006102
:103AA00001600068002100F4006001900198182076
:103AB000FEF7C6FB1820FEF7B1FB192000210022FB
:103AC000FEF7BEFB1920FEF7A9FB1A2000210022F9
:103AD000FEF7B6FB1A2002B0BDE88040FEF79EBBA1
:103AE00090F83D1001291CBF01207047022180F889
:103AF0003D10006840F2FF72C168C4F200029042BB
:103B000041F00101C16009DCB0F1804F12D040F2F8
:103B10000041C4F2000188420CD012E042F600419C
:103B2000C4F20101884205D040F60001C4F2000150
:103B3000884206D1816801F00701062904BF0020F0
:103B40007047016841F001010160002070470000EA
:103B500090F83C20012A4FF002026CD080B580F82A
:103B60003D20D0F800C04FF67772DCF8083023EA29
:103B70000202CCF808200B684F2B29DC1F2B45DDF7
:103B8000202B46D0302B44D0402B40F0AF80D1F8D2
:103B900004E0C968DCF82030DCF8202022F00102C3
:103BA000CCF82020DCF8182022F0F00242EA0111C3
:103BB00023F00A0242EA0E02CCF81810CCF82020BA
:103BC000DCF8081041F0470121F0300128E000BF87
:103BD0006F2B33DDB3F5005F74D0B3F5805F21D078
:103BE000702B40F08380D1E901E3C968DCF808203C
:103BF00043EA0E0322F47F4243EA01211143CCF849
:103C00000810DCF8081041F0770109E00BB1102B27
:103C10006CD1DCF8081021F07001194341F0070164
:103C2000CCF808100022012180F83D10002180F816
:103C30003C10BDE880401046704700BF502B21D09B
:103C4000602B53D1D1F804E0C968DCF82030DCF8EF
:103C5000202022F01002CCF82020DCF8182022F4DA
:103C6000704242EA013123F0A00242EA0E12CCF87F
:103C70001810CCF82020DCF8081041F0670121F082
:103C80001001CDE7D1F804E0C968DCF82030DCF899
:103C9000202022F00102CCF82020DCF8182022F0AD
:103CA000F00242EA011123F00A0242EA0E02CCF8C5
:103CB0001810CCF82020DCF8081041F0570121F052
:103CC0002001ADE7D1E901E3C968DCF8082043EA47
:103CD0000E0322F47F4243EA01211143CCF808107D
:103CE000DCF8081041F480419AE700BF01229AE70E
:103CF000002804BF012070472DE9F04F81B090F8F3
:103D00003D2042B9002280F83C2004460D4600F0D8
:103D10009DF829462046022280F83D20026844F2A0
:103D20000705936842F6004CAB43936040F2FF7383
:103D30001468C4F200039A42C4F2010C14DCB2F11C
:103D4000804F19D040F20045C4F20005AA4213D0BA
:103D50009A4217DCB2F1804F1CD040F20043C4F20B
:103D600000039A4216D01AE0624505D040F60005DD
:103D7000C4F20005AA42EBD1856824F070042C43FC
:103D80009A42E7DD624505D040F60003C4F2000325
:103D90009A4204D1036924F4407543EA050424F0EF
:103DA00080038469D0F804E0C5682343624513604A
:103DB000D562C2F828E002D14369CCF830304FF028
:103DC000010EC2F814E01569ED0703D0156925F05E
:103DD0000105156195689469D2F820C0D1E90038D1
:103DE000D1E9027B43EA050A8D694FF6FF7924EA9F
:103DF000090447EA05254FF6FC47BD43D1E907769C
:103E000044EA0B040B692C4344EA07242CF02207F4
:103E1000496944EA031347EA080743EA063347EAD5
:103E20000111C2F808A09361116280F846E080F8A1
:103E30003EE080F83FE080F842E080F843E080F820
:103E40003DE0002001B0BDE8F08F000080B586B0F5
:103E5000006840F60001C4F2000188424FF0000102
:103E6000CDE90411CDE9021120D040F20041C4F2A5
:103E7000000188423ED141F21800C4F202004168BC
:103E800041F002014160416801F002010191019994
:103E9000016841F004010160006800F00400019035
:103EA000019840F60000C4F201001BE041F2180046
:103EB000C4F20200416841F004014160416801F030
:103EC000040101910199016841F008010160006855
:103ED00000F008000190019840F60000C4F20100D3
:103EE00000F58060C02102910021CDE9031102A9F3
:103EF000FDF792F906B080BD80B590F83E2090F8AD
:103F00003F3090F842E090F843C004290AD0B9B994
:103F1000012A4FF0010208BFBEF1010F34D0104654
:103F200080BD00BF012B4FF0010208BFBCF1010FA3
:103F3000F5D1022180F83F1080F8431000681EE0A0
:103F4000012A4FF0010208BF012BE8D1BEF1010F99
:103F5000E5D1BCF1010FE2D1022280F83E2080F8C9
:103F60003F2080F8422080F8432091B10068016A28
:103F700021F001010162016A41F001010162102199
:103F80006FF0100209E000BF022180F83E1080F8B7
:103F90004210006801216FF00102036A1A400262B8
:103FA000026A114301620168002241F001010160CF
:103FB000104680BD2DE9F04381B00446007F012802
:103FC0003BD143F65846C2F2000630460021002598
:103FD00000F024FC40F2A817C2F2000778653046D2
:103FE000042100F01BFC7E6DB865EEB164214843EE
:103FF0006430FCF70AFC0546701CFCF706FC06461C
:1040000028463146FCF7ECF9FCF742FCC7E91C01F5
:1040100042F20040C4F674103146FCF7E1F9FCF7B7
:1040200037FC054603E000BF0021C7E91C5540F2FC
:104030002020C2F20000C0E90051206840F2004890
:10404000C4F20008404507D008F58061884266D078
:1040500001B0BDE8F08300BF204600214FF0000909
:1040600000F0DCFB40F2A817C2F20007F8802046FF
:10407000042100F0D3FB7A88FB88554238819342B3
:1040800038BFD543EA18BD8881B26E427A818D422D
:1040900088BFEE433118B981B88090B289B2084424
:1040A0007B80FCF7B2FB4FF07C51FCF767F9FCF723
:1040B000DBFBF86560B340F28811C2F200010D68C5
:1040C00035B3FCF7A2FB45F24041C4F68941FCF749
:1040D00087F9014678664FF07E50FCF781F9064675
:1040E0002846FCF789FB01460020C4F27020FCF74B
:1040F00077F93146FCF742F93866FCF7C9FB02460E
:104100004AF29A50C0F600000B4605F0A3FA01E00F
:10411000C7F86090206808F58061884298D12046F1
:104120000021002500F07AFB40F2A816C2F200063A
:10413000F0802046042100F071FB7288F38857421A
:104140003081934238BFD743FA18B78881B27C4296
:1041500072818F4288BFFC432118B181B08090B238
:1041600089B208447380FCF750FB4FF07C51FCF798
:1041700005F9FCF779FBF06570B340F28811C2F2E3
:1041800000010C6844B3FCF740FB45F24041C4F623
:104190008941FCF725F9014670664FF07E50FCF727
:1041A0001FF905462046FCF727FB01460020C4F214
:1041B0007020FCF715F92946FCF7E0F8B066FCF72B
:1041C00067FB02464AF29A50C0F600000B4601B067
:1041D000BDE8F04305F03EBAB56601B0BDE8F08336
:1041E00070B504460068C5680669B10716D515F0B4
:1041F000020113D06FF00201016101212177806972
:10420000800703D02046FFF7D5FE05E0204600F0EA
:104210008FF8204600F02EFA00202077700719D57D
:1042200015F0040016D020686FF00401016102212E
:104230002177806910F4407F04D02046FFF7BAFE52
:1042400006E000BF204600F073F8204600F012FAA6
:1042500000202077300717D515F0080014D020680B
:104260006FF00801016104212177C069800703D044
:104270002046FFF79FFE05E0204600F059F8204653
:1042800000F0F8F900202077F00619D515F010009D
:1042900016D020686FF01001016108212177C069F4
:1042A00010F4407F04D02046FFF784FE06E000BFF4
:1042B000204600F03DF8204600F0DCF90020207791
:1042C000F00718BF15F0010002D1300609D412E042
:1042D00020686FF001010161204600F08FFA30067E
:1042E00009D515F0800006D020686FF080010161CB
:1042F0002046FFF701FB700609D515F0400006D0F7
:1043000020686FF040010161204600F093FAB0068A
:1043100058BF70BD15F0200008D021686FF0200252
:1043200020460A61BDE87040FFF7E8BA70BD0000A2
:104330007047000090F83C30012B04BF022070470A
:104340004FEAB202032A00F2F1802DE9F043DFE8E0
:1043500002F003A53B7500BF036842F600461D6AE4
:104360001A6AC4F2010622F001021A621A465C6857
:1043700052F818CFB3428E68D1F800E025F002055C
:1043800045EA06050CD1CE68D1E9057824F44074DD
:1043900025F00C0526F004063C43354344EA0804A6
:1043A0002CF0730747EA0E075C609F614F6809694C
:1043B0005F631D629F6947F008079F619F6927F04F
:1043C00004079F61A6E000BF036842F600461D6A2D
:1043D0001A6AC4F2010622F480721A621A46D3F8ED
:1043E00004C052F81CEFB3428E680C6825F40075C7
:1043F00045EA06250FD1CE68D1E90598360240F28C
:10440000FF4725F44065BE4335432CF4405748EA46
:10441000090647EA061C2EF073072743C3F804C0B9
:10442000DF614F680969DF631D62DF6947F00807D4
:10443000DF61DF6927F00407DF616BE0036842F6A4
:104440000047D3F820C01A6AC4F2010722F4805250
:104450001A621A465C6852F81C5FD1F800E08E6858
:10446000BB4204D14F6924F4804444EA87142CF4FD
:10447000005747EA063725F4E64646EA0E265C6012
:10448000DE614E6809691E641F62DF6947F40067D8
:10449000DF61DF6927F48067DF613AE0036842F695
:1044A00000461D6A1A6AC4F2010622F010021A625E
:1044B0001A46D3F804C052F8184FB3428E68D1F8A8
:1044C00000E025F0200545EA06150FD1CE68D1E9B8
:1044D00005986FF0400725F0C00507EA061635433A
:1044E0002CF4406748EA090647EA860C24F4E644BF
:1044F00044EA0E27C3F804C09F614F6809699F63AF
:104500001D629F6947F400679F619F6927F4806778
:104510009F6109021368194311600021BDE8F0434F
:10452000002280F83C200846704700BF012100228D
:1045300080F83C2008467047002804BF01207047DF
:1045400010B590F83D1031B9002180F83C100446B8
:1045500000F070F82046022180F83D10016840F21A
:10456000FF740B68C4F2000442F6004CA142C4F28E
:10457000010C15DCB1F1804F1AD040F20042C4F2B8
:104580000002914214D0A14218DCB1F1804F1DD03D
:1045900040F20042C4F20002914217D01AE000BF7C
:1045A000614505D040F60002C4F200029142EAD112
:1045B000826823F070031343A142E6DD614505D014
:1045C00040F60002C4F20002914203D1026923F4D2
:1045D00040731343846923F08002D0F804E0C36879
:1045E000224361450A60CB62C1F828E002D14269EA
:1045F000CCF8302001224A610B69DB0703D00B693C
:1046000023F001030B6180F8462080F83E2080F8FB
:104610003F2080F8402080F8412080F8422080F838
:10462000432080F8442080F8452080F83D20002079
:1046300010BD00000068B0F1804F18BF704780B512
:1046400082B041F21C00C4F202000168002241F075
:10465000010101600068002100F001000190019853
:104660001C20FDF7EDFD1C2002B0BDE88040FDF7E9
:10467000D5BD000070470000C1B1042908D0082949
:1046800014BF41224022825C012A05D016E000BFFF
:104690003F22825C012A11D10222082910D004296C
:1046A00014BF80F8412080F83F200BE090F83E20B6
:1046B000012A03D1022280F83E2003E00120704746
:1046C00080F84020006801F01F010122036A8A403F
:1046D00023EA02010162036A42F64441C4F2010185
:1046E0001A43A1F14403984202620FD040F2FF71D5
:1046F000C4F20001884213DCB0F1804F1CD040F2BC
:104700000041C4F20001884216D01CE00A6842F45D
:1047100000420A6040F2FF71C4F200018842EBDD02
:1047200042F60041C4F20101884205D040F6000182
:10473000C4F20001884206D1816801F00701062910
:1047400004BF00207047016841F0010101600020B2
:104750007047000080B5026801F01F0C012303FAC6
:104760000CFE136A42F6004C23EA0E031362C4F2F5
:10477000010C136A6245136211D1DCF820C041F2CA
:1047800011131CEA030F0AD1D2F820C040F24443AF
:104790001CEA030F03D1536C23F400435364D2F893
:1047A00020C041F211131CEA030F06D1D2F820C039
:1047B00040F244431CEA030F14D0082918D00429FE
:1047C0000AD000294FF0010114BF80F8411080F891
:1047D0003E10002080BD00BF012180F83F10002066
:1047E00080BD00BF136823F0010313600829E6D1E0
:1047F000012180F84010002080BD0000006842F6D2
:104800000041C4F20101884218BF704740F2A8106D
:10481000C2F200004FF07E51016370474FEAB101D0
:10482000032984BF00207047006800EB8100406BC3
:10483000704700007047000070470000704700009C
:10484000B0B582B001680A68CC684B6902F02F05E8
:10485000202D04F0200505D125B102B0BDE8B040FF
:1048600002F01AB95FEA027C1EBF03F0010E04F4E5
:10487000907313EB0E0341D1036BD50618D5012BB2
:1048800016D114F0100313D0002201920A6801928D
:104890004A680192019A496949064BD4818DC28DBB
:1048A000C38D002B18BF914240F0F48102B0B0BD1F
:1048B00013062DD514F080032AD090F84120212A28
:1048C000F4D18268B2F5805F03D10269002A00F05A
:1048D0006782026A531C036212784A60C28C013AF2
:1048E0001304C284E2D1C86820F08000C860C868A0
:1048F00040F04000C86002B0B0BD00BFD30718BF91
:1049000014F4807340F0D080530700F1D380D8E0D6
:104910005206CBD514F04002C8D0CA6822F040023B
:10492000CA60202180F8411002B0BDE8B04000F01C
:104930009BBB00BFC16B0A68526893B2002BB5D015
:10494000858DAB42B2D2C2858969202900F0A18051
:10495000016851E8031F026821F4807142E80313E3
:10496000DBB1016851E8031F026821F4807142E85D
:10497000031393B1016851E8031F026821F48071A9
:1049800042E803134BB1016851E8031F026821F4A8
:10499000807142E80313002BDAD1016851E8051F4A
:1049A000026821F0010142E80513C3B3016851E830
:1049B000051F026821F0010142E805137BB301687D
:1049C00051E8051F026821F0010142E8051333B3E5
:1049D000016851E8051F026821F0010142E8051352
:1049E000002BDAD11BE000BF016851E8051F026807
:1049F00021F0400142E80513DBB1016851E8051FD1
:104A0000026821F0400142E8051393B1016851E8C2
:104A1000051F026821F0400142E805134BB101680F
:104A200051E8051F026821F0400142E80513002B00
:104A3000DAD1202180F8421000210163016851E899
:104A4000031F026821F0100142E80313DBB1016883
:104A500051E8031F026821F0100142E8031393B1EB
:104A6000016851E8031F026821F0100142E80313B6
:104A70004BB1016851E8031F026821F0100142E8C0
:104A80000313002BDAD1C16B04460846FCF71EFB6A
:104A9000204602214163818DC28D891A89B202B0FC
:104AA000BDE8B040FFF7C8BE436C43F00103436468
:104AB000530706D5BEF1000F03D0436C43F0020349
:104AC0004364930706D5BEF1000F03D0436C43F057
:104AD00004034364BCF1000F06D55EEA050303D06E
:104AE000436C43F008034364436C002B3FF4DEAE99
:104AF000920605D525B1044601F0CEFF2168204677
:104B00004969426C01F0400102F00802891800F086
:104B1000B98000BF016851E8031F026821F4907159
:104B200042E80313BBB3016851E8031F026821F494
:104B3000907142E8031373B3016851E8031F0268E0
:104B400021F4907142E803132BB3016851E8031F6D
:104B5000026821F4907142E80313002BDAD11AE0C5
:104B6000016851E8051F026821F0010142E80513C0
:104B7000DBB1016851E8051F026821F0010142E83C
:104B8000051393B1016851E8051F026821F0010186
:104B900042E805134BB1016851E8051F026821F096
:104BA000010142E80513002BDAD1016B012924D160
:104BB000016851E8031F026821F0100142E8031365
:104BC000DBB1016851E8031F026821F0100142E8DF
:104BD000031393B1016851E8031F026821F010012B
:104BE00042E803134BB1016851E8031F026821F04A
:104BF000100142E80313002BDAD1202180F8421083
:104C00000021016301684969490640F1C3800168D8
:104C100051E8051F026821F0400142E80513DBB1AD
:104C2000016851E8051F026821F0400142E80513C0
:104C300093B1016851E8051F026821F0400142E884
:104C400005134BB1016851E8051F026821F04001CE
:104C500042E80513002BDAD1C16B002900F09A80DD
:104C600046F68D22C0F60002044608464A63FCF769
:104C700051FA00283FF41AAEE06B416B02B0BDE878
:104C8000B04008470446FFF7D9FD0020606402B039
:104C9000B0BD00BF891A00BF026852E8032F036845
:104CA00022F4907243E80325BDB3026852E8032F53
:104CB000036822F4907243E8032575B3026852E852
:104CC000032F036822F4907243E803252DB3026892
:104CD00052E8032F036822F4907243E80325002D65
:104CE000DAD11AE0026852E8052F036822F00102C7
:104CF00043E80525DDB1026852E8052F036822F07C
:104D0000010243E8052595B1026852E8052F0368C2
:104D100022F0010243E805254DB1026852E8052F53
:104D2000036822F0010243E80525002DDAD1202294
:104D300080F8422000220263026852E8032F0368D1
:104D400022F0100243E80325DDB1026852E8032F88
:104D5000036822F0100243E8032595B1026852E887
:104D6000032F036822F0100243E803254DB10268C7
:104D700052E8032F036822F0100243E80325002DB8
:104D8000DAD1022289B2426302B0BDE8B040FFF737
:104D900053BD00BF02B0BDE8B040FFF74FBD00BF3C
:104DA000026A32F8023B6FF35F234B60026295E5C3
:104DB000002804BF0120704710B5044690F8410058
:104DC00028B9002084F84000204600F063F8242031
:104DD00084F841002068D4E90212C36823F4005328
:104DE000C360036923F440531A430261D4E90423E6
:104DF0001143C268194341F20C639A431143C160E5
:104E00004169A26921F44071114343F60002C4F2E2
:104E100001029042416103D0FEF730FB02E000BF87
:104E2000FEF740FBD4E90023192148439900B0FB69
:104E3000F1F048F21F5CC5F2EB1CA0FB0C314FF601
:104E40009C734909C0F6FF7301FB0300322303EB97
:104E50000010A0FB0C03F02000EA531000EB01103F
:104E6000C3F34311084490601069202120F490405E
:104E70001061506920F02A005061D06840F4005061
:104E8000D0600020606484F8411084F842106063B0
:104E900010BD000070B586B040F60004C4F20104F5
:104EA000006804F54051002688420596CDE9036666
:104EB000029601D006B070BD41F21800C4F20200A3
:104EC000016802AD41F480410160016801F4804154
:104ED00001910199016841F00401016000682946CF
:104EE00000F00400019001984FF40070029002203D
:104EF0000390032005902046FCF78EF94FF4806064
:104F0000CDE90206204629460496FCF785F92520BE
:104F100000210022FDF794F92520FDF77FF906B066
:104F200070BD000090F84230202B07D100294FF0CF
:104F3000010318BF002A05D11846704702231846FE
:104F4000704700BF00230363816222218285C285EE
:104F5000436480F842100169006819B1C16841F4E6
:104F60008071C160416941F001014161C16841F056
:104F70002001C16018467047B0B582B0006843F6A2
:104F80000001C4F2010140F2A8158842C2F20005F6
:104F900004D00120686202B0B0BD00BF68780D285F
:104FA00001D00A2818D1287840B340F22021C2F25B
:104FB000000101F1080400212154019115A101AA69
:104FC0002046FBF7C1F8012812D101991EA004F078
:104FD00041FB0198A8620FE0297808290CD84A1CE7
:104FE0002A7040F22022C2F200021144087205E049
:104FF00009A0214604F02EFB0020287043F6E8406B
:10500000691CC2F200000122FFF78CFF01206862D8
:1050100002B0B0BD25640000E29AA0EFB88F20E78F
:1050200084A1E6B395E8A7A3E69E90204F66667339
:105030006574EFBC8CE694B6E588B0EFBC9A5B254E
:10504000735D0D0A00000000F09F93A520E68EA579
:10505000E694B6E588B0204F6666736574203D20FF
:1050600025640D0A0000000070470000FEE7000004
:1050700043F69C00C2F20000FCF7ECB910B581B019
:1050800000210091406A40F23001C2F2000190F824
:105090003DC009684BF28952C908C1F2F842A1FB30
:1050A0000212110A232251430091009901B3009981
:1050B000013900910268116889051DD50099B9B1BF
:1050C0000099013900911168890515D5009979B1C8
:1050D000009901390091116889050DD5009939B100
:1050E00000990139009111688905DED404E000BF00
:1050F000016C41F020010164446B4FF0000E002C64
:105100001CBF0021A162816B00291CBF00228A62A2
:105110000268002C136823F480631360A0F82AE06F
:1051200018BFC4F834E000291CBF00234B6311688A
:1051300021F00101116090F83D1060290CD120216F
:1051400080F83D10002180F83E10016401B0BDE8F8
:105150001040FCF77BB900BF0CF02801282911D1C1
:10516000116841F001011160116841F48061116022
:1051700000210163282180F83D1001B0BDE81040F6
:10518000FCF790BC202180F83D10002180F83E10F3
:1051900001B0BDE81040FCF785BC000010B5044626
:1051A00090F83D1090F83E00B0F1100218BF0122B7
:1051B000403818BF0120024208BF222934D001F034
:1051C000280028283AD100202063282084F83D00B8
:1051D00020684168090542D5416821F400614160B9
:1051E000606B90F82110012958D1A06B45F27D0128
:1051F000C0F600014163FBF78DFF002861D02068F5
:105200004169490606D50069616A0870616A2068CB
:1052100001316162016821F001010160202084F800
:105220003D00A06B4BE000BF2068026822F40062E2
:1052300002604268120505D50CE000BF2068426894
:10524000120507D4602905D0202184F83D100021E3
:1052500084F83E100021216341680905BCD494F80C
:105260003D10602950D1202184F83D100021216497
:105270004169490606D50069616A0870616A20685B
:1052800001316162016821F0010101602046FCF7F3
:10529000DDF8206C000717D11BE000BF45F27D014F
:1052A000C0F600014163FBF735FF50B12168606B28
:1052B0000A6822F001020A60202184F83D10416B47
:1052C0008847206C000704D02068416821F4E06121
:1052D000416094F83D00216C490758BF10BD282853
:1052E00010D10020CFF6FF70E06200212020216362
:1052F00084F83D00204684F83E10BDE81040FCF7DD
:1053000085BC00BF10BD00BF4169490605D50069D5
:10531000616A0870606A013060622046FCF7C2FB77
:10532000206C0007D0D1D4E7C16A428D042A07D18E
:105330000168426A4B6823F480634B60096911E09D
:10534000428D032A16D102680229536823F4806330
:10535000536005D0042903D0116821F480611160E5
:105360001169426A1170416A01314162418D01390E
:1053700041857047428D022A12D14A1E0F2A19D840
:10538000DFE802F008121812181818181818181860
:10539000181818080268136823F480630EE000BF31
:1053A0000168426ACAE700BF0268136843F4806379
:1053B00004E000BF0268136843F4007313601269CD
:1053C000436A1A70426AD0F800C0531C4362438D8E
:1053D000013B4385DCF810305370426A03680132A8
:1053E0004262428D013A42855A6822F440725A6004
:1053F000202280F83D2090F83E300022402B80F89B
:105400003E2003D10263FCF707BC00BFB1F10802E4
:1054100018BF1222203918BF11460163FCF7F8BBF0
:1054200081B090F83D10222910D1C16A428D042A22
:105430000ED30168426A09691170416A0131416203
:10544000418D01394185418D032959D001B0704703
:10545000C36A012A54D8022B52D00022009240F293
:105460003002C2F2000212684BF28953D208C1F234
:10547000F843A2FB03231A0A02EB82020092009A6D
:10548000013A0092009A002A42D0026813689B05F4
:1054900017D5009B013B0093009BCBB313689B0582
:1054A0000FD5009B013B0093009B8BB313689B05BA
:1054B00007D5009B013B0093009B4BB313689B05F2
:1054C000DDD4136823F480631360536823F4E0632E
:1054D00053601269436A1A70426A01324262428D15
:1054E000013A4285202280F83D2090F83E3000228B
:1054F000402B80F83E2027D1026301B0FCF78CBB23
:105500000068416821F48061416001B0704700BFCC
:10551000016C41F0200101640168426A4B6823F488
:10552000E0634B6009691170416A01314162418D4C
:1055300001394185202180F83D10002180F83E107E
:1055400001B0FCF7AFBA00BFB1F1080218BF1222D8
:10555000203918BF1146016301B0FCF759BB0000A8
:10556000C16A90F83D20212A18BF7047428D4AB188
:10557000416A026811F8013B13614162418D0139B2
:105580004185704711F5803F18BF082918D101687F
:105590004A6822F4E0624A600A6842F400720A60D3
:1055A00000212022016380F83D2090F83E2080F801
:1055B0003E10402A08BFFCF731BBFCF72BBB00BFF5
:1055C0002029E4D001684A6822F4E0624A6011218F
:1055D0000163002180F83E10202180F83D10FCF787
:1055E00019BB000090F83D1090F83EC0C26A038DD0
:1055F000002B08BF212919D0212905D0BCF1400F6B
:1056000008BF222900D07047418D69B390F83E1041
:10561000402908BF00F040B8416A026811F8013B18
:1056200013614162418D01394185704712F5803F18
:1056300018BF082A1ED101684A6822F4E0624A6055
:105640000A6842F400720A6000212022016380F897
:105650003D2090F83E2080F83E10402A08BFFCF71D
:10566000DDBAFCF7D7BA00BF0068416821F4806159
:1056700041607047202ADED001684A6822F4E06267
:105680004A6011210163002180F83E10202180F83A
:105690003D10FCF7BFBA000090F83D10026D5AB102
:1056A000026D012A14D10168826CD2B20A61016DC7
:1056B00001310165704700BFC26C816C012A15D1B0
:1056C0000268C9B21161016D02310165704700BF06
:1056D000026D022A12D1222918D101680A6842F407
:1056E00080720A60016D0131016570470268C1F383
:1056F00007211161016D0131016570470068416941
:10570000090644BF00210161704700BF428D5AB1B4
:10571000212909D1416A026811F8013B13614162F4
:10572000418D013941857047428D002A08BF2129EA
:10573000EAD101684A6822F4E0624A600A6842F4E9
:1057400000720A6000212022016380F83D2080F869
:105750003E10FCF763BA00002DE9F04782B0044622
:1057600000689A460B9D0A9E0368914643F4806246
:10577000026002680F4642F48071016020464FF0DB
:10578000011100223346009500F032F950B1206833
:105790000068C00544BF4FF400702064032002B0CD
:1057A000BDE8F08740F202082068C0F2010807F067
:1057B000FE0707612046414632462B4600F0FEF9BF
:1057C00020B1012002B0BDE8F08700BF00200190A9
:1057D00020682A464169019180693146019001980B
:1057E000204600F09FFAB0B92068BAF1010F09D045
:1057F0004FEA19210161204631462A4600F092FA0B
:1058000048B920685FFA89F10161204631462A468D
:1058100000F088FA60B1206C0428D2D120680168B9
:1058200041F400710160012002B0BDE8F08700BFC3
:10583000206800220168334641F4807101602046EF
:105840004FF00111009500F0D3F800289FD147F0E8
:10585000010C27682046414632462B46C7F810C047
:1058600002B0BDE8F04700F0A9B900002DE9F0430F
:1058700083B0044600680F4601680A9D0B9E41F400
:10588000807199469046016020464FF00111002238
:105890002B46009600F0ACF850B120680068C005B7
:1058A00044BF4FF400702064032003B0BDE8F083D0
:1058B000206807F0FE0101610221C0F201012046CB
:1058C0002A46334600F07AF920B1012003B0BDE842
:1058D000F08300BF002002902068324641690291A7
:1058E0008069294602900298204600F01BFA58B1C0
:1058F000206C0428E9D12068016841F4007101603E
:10590000012003B0BDE8F0832068B9F1010F0AD08F
:105910004FEA1821016120462946324600F002FA7A
:105920000028E5D120685FFA88F10161002003B00A
:10593000BDE8F08370B50368044653F8140F4007C0
:1059400011D40E46481C29D086BB00BF18684005FC
:1059500027D4FBF775FD236853F8140F400737D59C
:1059600018684007F2D5002070BD00BF18684007D6
:10597000F9D41868400514D418684007F3D418689F
:1059800040050ED418684007EDD41868400508D4C7
:10599000186840074FF0000048BF70BD1868400508
:1059A000E4D56FF480601860042012E0154603E02F
:1059B00053F8140F4007D6D418684005F1D4FBF70C
:1059C0003FFD401B2368B042F2D958694007EFD42D
:1059D000202000212022216384F83D2084F83E10FD
:1059E000226C10432064012084F83C1070BD00003C
:1059F0002DE9F041054600681E46144601F47F0279
:105A000001338FB242D0DDF81880B2F5803F40F00C
:105A1000878040693840C01BB0FA80F0400984425A
:105A200040F0C8804EB924E040693840C01BB0FA4D
:105A300080F04009844240F0BD80FBF701FDA0EBFF
:105A400008012868B142EFD941693940C91BB1FA50
:105A500081F149098C42E7D19BE000BF40693840A1
:105A6000C01BB0FA80F0400984424FF0000040F0C3
:105A7000A280FBF7E5FC286841693940C91BB1FAEF
:105A800081F149098C42E9D183E000BFB2F5803F42
:105A900024D100BF41693940C91BB1FA81F14909DC
:105AA0008C4240F0878041693940C91BB1FA81F1CD
:105AB00049098C4240F07E8041693940C91BB1FAE6
:105AC00081F149098C4275D141693940C91BB1FA4C
:105AD00081F149098C42DDD06CE000BF8169394019
